:020000040800F2
:10000000900700206D010008412400083F1F0008F0
:1000100000000000000000000000000000000000E0
:100020000000000000000000000000002F25000874
:10003000000000000000000043240008052600081E
:100040007F010008000000007F0100087F01000818
:100050007F0100087F0100087F0100081D070008DC
:10006000000000007F0100087F0100087F010008F8
:100070007F0100087F0100087F01000800000000E8
:100080007F01000800000000000000007926000841
:10009000000000007F0100087F0100087F010008C8
:1000A0007F0100087F0100087F0100087F01000830
:1000B0007F010008000000000000000000000000B8
:1000C00000F002F800F03EF80CA030C80838241800
:1000D0002D18A246671EAB4654465D46AC4201D180
:1000E00000F030F87E460F3E0FCCB6460126334274
:1000F00000D0FB1AA246AB4633431847942A0000AF
:10010000B42A0000103A02D378C878C1FAD852074E
:1001100001D330C830C101D504680C6070470000BD
:100120000023002400250026103A01D378C1FBD813
:10013000520700D330C100D50B6070471FB51FBDFB
:1001400010B510BD00F0F5F91146FFF7F7FF02F00A
:10015000C5FB00F00DFA03B4FFF7F2FF03BC00F09B
:1001600011FA00000138FDD17047000007488047B0
:1001700007480047FEE7FEE7FEE7FEE7FEE7FEE78B
:1001800004480549054A064B7047000075260008DB
:10019000C10000089001002090070020900300207B
:1001A0009003002001E004C0091F0429FBD28B0743
:1001B00001D50280801CC90700D002707047002959
:1001C0000BD0C30702D00270401C491E022904D381
:1001D000830702D50280801C891EE3E70022EEE738
:1001E0000022DFE7002203098B422CD3030A8B4253
:1001F00011D300239C464EE003460B433CD400221F
:1002000043088B4231D303098B421CD3030A8B4230
:1002100001D394463FE0C3098B4201D3CB01C01AFE
:10022000524183098B4201D38B01C01A52414309C9
:100230008B4201D34B01C01A524103098B4201D3B7
:100240000B01C01A5241C3088B4201D3CB00C01A24
:10025000524183088B4201D38B00C01A524143089C
:100260008B4201D34B00C01A5241411A00D20146C1
:100270005241104670475DE0CA0F00D0494203105A
:1002800000D34042534000229C4603098B422DD3A9
:10029000030A8B4212D3FC22890112BA030A8B4251
:1002A0000CD3890192118B4208D3890192118B42A0
:1002B00004D389013AD0921100E08909C3098B4225
:1002C00001D3CB01C01A524183098B4201D38B0168
:1002D000C01A524143098B4201D34B01C01A52410B
:1002E00003098B4201D30B01C01A5241C3088B4250
:1002F00001D3CB00C01A524183088B4201D38B003B
:10030000C01A5241D9D243088B4201D34B00C01AC4
:100310005241411A00D20146634652415B101046D9
:1003200001D34042002B00D54942704763465B1021
:1003300000D3404201B50020C046C04602BD704710
:1003400070477047F0B5FF252D04C609C209FF2785
:1003500004462E400137CB093E4348402A402B40FB
:100360000746002A6BD0002B69D0AA4267D0AB4267
:1003700065D0002800DA32460125ED0529432C43DB
:1003800009022002090AD21A4B0C7F24E31A434CBB
:10039000000A7C44E35C7D242404121914145B00DD
:1003A000A218884201D3521C00E0400049420C468A
:1003B0005C4324115C43DB016415E318040A5C43CD
:1003C000C502200D0C4644436419250A5D432303EE
:1003D000EC0C0D46654300030019EB184C42A34298
:1003E00001D35B18401CD4052018002B07D05B00FC
:1003F000C91804D3401C002901D1400840003F2106
:1004000089048A4209D3002A08DC1106090F04D0A6
:10041000032149074018C00FC007F0BD0122410069
:10042000120689187F2252069142F6D20521490709
:10043000C84201D59010F0BDFF20C005F0BD002FCF
:1004400000DA32461648AA4207D2AB4205D2190258
:10045000090E17D0F80FC007F0BDFF2563002D0669
:10046000AB42F9D84900A942F6D8AB4201D1A94222
:10047000F2D0A94201D1002101E061004908D00574
:100480000843F0BD1102090EFBD0FF200243D00546
:10049000F0BD0A460146104654E70000BA270000A6
:1004A0000000C07F0102C21504D00123DB071943FD
:1004B000002A0ADB9E239A1A02D40846D0407047CD
:1004C000FF2241001206914201D900207047C01757
:1004D000C04370471F22030C02D10F2200041CD01E
:1004E000030E01D10002083A030F01D10001121FCF
:1004F000830F01D18000921E002801DB4000521EB4
:10050000D2055118021251181922904004D3491CE7
:10051000002801D14908490008467047C10FC907A2
:1005200000D04042012292071143D3E701218907FD
:10053000D0E7754600F022F8AE46050069465346FE
:10054000C008C000854618B020B5FFF719FE60BC92
:1005500000274908B6460026C0C5C0C5C0C5C0C5ED
:10056000C0C5C0C5C0C5C0C5403D49008D46704727
:100570000446C046C0462046FFF7EDFD00487047E0
:100580002C01002001491820ABBEFEE72600020026
:100590007047000070B50446006801F061FE002855
:1005A00024D0206881688907C90F04D18168104A66
:1005B00011401031816000F0EFFC054612E000F0C0
:1005C000EBFC401B02280DD920688068400709D544
:1005D000A06D10210843A065E06D01210843E0658E
:1005E000084670BD206880684007E8D4002070BDD0
:1005F000E8FFFF7FF8B50446006881688907CD0FE2
:1006000001F02AFE00282AD0002D28D12068816818
:100610000522114010250126012914D18168114AB3
:100620001140891C816021680320086000F0B4FC3F
:10063000074610E000F0B0FCC01B02280BD9206870
:100640008068C00707D0A06D2843A065E06D3043E7
:10065000E0650120F8BD20688068C007EAD100206D
:10066000F8BD0000E8FFFF7FF8B5044600200090C9
:10067000206801F0F1FD002845D120688168234AF7
:1006800010261140002930D18168D5432940491CEA
:1006900081601F48006807218905084000020AD5CB
:1006A0001D481C490068FFF79DFD401C00E0401EEE
:1006B00000900028FBD1607E012824D000F06CFC63
:1006C00007461BE001F0C8FD002804D120688168BE
:1006D0002940491C816000F05FFCC01B02280DD935
:1006E00020680068C043C00708D0A06D3043A065F3
:1006F000E06D01210843E0650846F8BD2068016807
:10070000C943C907DED10020F8BD000017000080F2
:1007100008270140400D03001800002010B52020DC
:1007200000F06AFB10BD72B6FEE7000010B50C4881
:1007300000F0D0FA0A4800F02BF9FFF7F7FE09495C
:1007400002F026F90849FFF7FDFD0446322104486E
:1007500000F05EFA024800F0F1FA204610BD0000F9
:100760001C0000203333534000F07F45F8B50027CC
:100770000646044640360097307D0D4601280FD0CE
:1007800001203075206801F06BFD00280AD0A06DB3
:1007900020210843A0650127002030753846F8BDA8
:1007A0000220F8BD686802287ED001222169D207A4
:1007B000914202D0121D914206D120682968826AB6
:1007C0004903490B0A436EE0C206D20E0F20216E88
:1007D000904081432868430302D0C3074BD102E015
:1007E0004000C00E48E0830701D5012044E04307E4
:1007F00001D5022040E0030701D503203CE0C306F9
:1008000001D5042038E0830601D5052034E04306F5
:1008100001D5062030E0030601D507202CE0C305F2
:1008200001D5082028E0830501D5092024E04305EF
:1008300001D50A2020E0030501D50B201CE0C304EC
:1008400001D50C2018E0830401D50D2014E04304E9
:1008500001D50E2010E0030401D50F200CE0C303E6
:1008600001D5102008E0830301D5112004E04003E6
:1008700001D5122000E00020904001432166696804
:10088000E2698808401C904210D820682B68826A70
:100890009C46C906C90E0F238B409A4363469B00B2
:1008A0001B0F8B401A4300E03BE082622168AB687B
:1008B00028684A6900028243184040014009024307
:1008C0004A612868002800DB66E72B4A1168072385
:1008D0009B051940294B984214D10B0212D4C00237
:1008E0000143104601F0C8FC264825490068FFF77F
:1008F00079FC0C21401C484300E0401E0090002879
:10090000FBD149E7204B984203D1CB0101D48002AF
:1009100005E01E4B9842D7D14802D5D45802014376
:1009200025E001212069C907884202D0091D8842BB
:1009300006D120682968826A4903490B8A4382628A
:1009400028680028C0DA0C4A116807239B05194063
:100950000A4B984201D1C00208E00B4B984201D1EA
:10096000800203E0094B9842AED140028143104619
:1009700001F082FC10E7000008270140001000B0E1
:10098000400D030018000020004000B8002000B413
:100990000068006C70470000FEB500270446019710
:1009A0003E4602970097002805D02546A06D2035C9
:1009B000002802D007E00120FEBD204600F0FAF832
:1009C000E6655420065520688168C900C90F12D118
:1009D0008168714A114001221207114381607048F9
:1009E0006E490068FFF7FEFB4000801C00E0401EDF
:1009F00000900028FBD120688168C900C90F08D188
:100A0000A16D10221143A165E16D01221143E16541
:100A1000174601F025FCA16D102211400143A06D85
:100A200003D010210843A065B2E0FF2101318843C3
:100A300002210843A065206801F00EFC00286CD15B
:100A4000217EA06889030843617ECA03A17E4B030F
:100A50001A431043226B002A01D0012212031043D3
:100A6000E26810432269002A02DA5200520801E0CB
:100A70000122520510432A7B52001043019A104371
:100A80002A78012A09D1002922D0A16D2022114300
:100A9000A165E16D01221143E165616A002906D07B
:100AA000FF23C1331940A26A01431046084321685D
:100AB000CA683C4B1A400243CA606168029A890FB7
:100AC0008907E06C0A4310432A7F012A04D00BE017
:100AD000012109040843E0E7636C226C491C1A43B6
:100AE000A36C0B431A431043226811692E4B194023
:100AF0000143116103216068890788420DD05907BD
:100B000088420AD04900884207D0284A91680F23BA
:100B10009B0499431840014391600021626B206857
:100B200001F0B1FB2249A26B206801F0ACFB0F2061
:100B30002169C04300291CD00122520591420AD1EB
:100B400021688A6A227F9200121FD206D20E90403C
:100B5000226E1043886220684069616B4007400F35
:100B600088420BD1E665A06D80088000401CA0651E
:100B70000FE021688A6A02438A62ECE7A06D0221D5
:100B8000884310210843A065E06D01210843E0651A
:100B900001273846FEBD0000E8FFFF7F400D03003F
:100BA000180000200102DEFF02FCFF1F00270140A9
:100BB00004FFFF0710B586B0044614216846FFF70E
:100BC0000FFB1049206888421AD10F4802680121A2
:100BD00009050A4302600068084005900A48403849
:100BE000426B02210A434263406B0091084005902A
:100BF00003200190002002906946044800F012F999
:100C000006B010BD00240140401002400004005016
:100C1000F8B5044640690D46082809D02068C06828
:100C2000C00707D0A06D20210843A0650120F8BDB2
:100C3000082600E0042600F0AFF9074615E0681C1E
:100C400013D000F0A9F9C01BA84201D8002D0CD187
:100C500020680068304208D1A06D04210843A065D7
:100C60000020403420750320F8BD20680068304221
:100C7000E5D0A06D012149020843A065206801F07C
:100C8000F3FA0C25002812D0A07E00280FD120688E
:100C9000016809070BD501F0E3FA012100280AD009
:100CA000A06D20221043A065E06D0843E065207E22
:100CB00000280BD00CE020684268AA434260A06D77
:100CC000FF22013290430843A065F0E720680560E9
:100CD0000020F8BD70B50446006801F0C1FA002894
:100CE00002D00221084670BD25464035287D0128E6
:100CF0000AD0012028752046FFF7B6FC01460020E7
:100D0000002903D02875EDE7022070BDA26D094BC4
:100D10001A40FF2301331A43A265E06523681C22B1
:100D20001A60287520688268034B1A40121D826081
:100D3000D8E70000FEF1FFFFE8FFFF7F70B5054632
:100D400004464035287D012807D001262E7520460F
:100D5000FFF720FC002802D00CE0022070BD2046E6
:100D6000FFF748FC002805D1A16DFF220132914315
:100D70003143A1650021297570BD000070B504469E
:100D800000F00AF90546601C02D0044800782418D7
:100D900000F002F9401BA042FAD370BD0C00002005
:100DA00070B520281FD11048FFF7DCF920210F482B
:100DB00000F0E6F8002816D10D4C01206070207874
:100DC0000025012801D9257001E0401C20706088B1
:100DD000002808D100F04CFF06480068456205482D
:100DE00000F0B2FF257070BD409C00000004005070
:100DF00020010020D400002070B5084D0446E868AA
:100E0000204203D0EC60204600F00AF82869204216
:100E100003D02C612046FFF7C3FF70BD00180240CD
:100E200070470000F0B5002303249AE02A4601250C
:100E30009D402A407ED00E79B607B60F012E01D014
:100E4000022E16D186682746B4465E00B646B740E5
:100E50006646BE43B446CF687646B74066463743DB
:100E600087604668AE430D79ED06ED0F9D40354332
:100E700045600D79ED43AD0708D0C5685F00264693
:100E8000BE40B5438E68BE402E43C6600D79AD07A7
:100E9000AD0F022D0ED1DD08AD002D18AC462D6A28
:100EA0005E07F60E0F27B740BD430F69B7402F43CB
:100EB00065462F6205685F002646BE40B5430E7941
:100EC000B607B60FBE402E4306604D68AD03AD0FAA
:100ED00046D09E08264DB6007519AC462D6E9E076D
:100EE000F60E0F27B740BD4305273F07B84201D193
:100EF00000270FE01F4FB84201D101270AE01E4F23
:100F0000B84201D1022705E01C4FB84201D10327A6
:100F100000E00527B7402F43154D664637662D681C
:100F20004E689543F60200D51543114F3D607D682C
:100F3000954300E014E04E68B60200D515437D608D
:100F40000B4D80356E684F689643BF0300D516433E
:100F50006E602E684F689643FF0300D516432E60DF
:100F60005B1C0A681546DA4000D05FE7F0BD000060
:100F7000001802400004005000080050000C00500F
:100F80000069084000D001207047002A01D081612B
:100F90007047816270470000014880687047000018
:100FA0000C00002070B5024640325378202B1CD133
:100FB0001378012B19D00123137024245470046872
:100FC00025689D432560046825681E03B543256098
:100FD000046825680D4325600068016819430160B5
:100FE000202050700020107070BD022070BD70B5C0
:100FF000024640325378202B1BD11378012B18D096
:10100000012414702423537003681D68A5431D60D8
:1010100005682B680F263602B3430902194329607D
:10102000006801682143016020205070002010708A
:1010300070BD022070BD000070B5040006D02546CA
:10104000403568780026002802D005E0012070BDF8
:101050002E70204600F072F9242068702068016824
:101060004908490001600F2160680906884321682A
:10107000086121688A680120C00382438A60E168B0
:101080000129A1682FD02122920211432268916088
:101090000121E268C902022A2268536825D08B43E5
:1010A000536021684A68124B1A434A602168CA6833
:1010B0008243CA60616920690843A1690902084343
:1010C0002168C860216AE0690843216808602068D7
:1010D0000168012211430160666420206870266364
:1010E000AE70002070BD0143D0E70B43D8E700008D
:1010F00000800002FFB5054604464035687881B09F
:10110000202878D12878012875D001202870FFF791
:1011100043FF0746012200901923D103204600F027
:10112000BBFF00283CD1222068701020A870002648
:10113000666403986062049860856663618D2F48D9
:10114000FF2903D9FF22228500903BE0618D218594
:1011500000903DE02046029900F088FF16E000F084
:10116000D5FF00281CD12068406A616A0870606A57
:10117000401C6062208D401E81B22185608D401E22
:101180006085608D002801D000290CD0608D0A99FF
:1011900000283A462046E2D101F006F800281CD08B
:1011A000012005B0F0BD00970022802120460A9B57
:1011B00000F072FF0028F3D1608DFF2805D9FF22CF
:1011C0002285009601231B06C4E7608D20850096CA
:1011D000208D0123C2B25B06BCE721682020C861D4
:1011E00021684A68064B1A404A606870AE702E70DB
:1011F0000020D6E7FFE70220D3E7000000240080AC
:1012000000E800FEFFB5054604464035687881B029
:10121000202877D12878012874D001202870FFF782
:10122000BBFE0746012200901923D103204600F09F
:1012300033FF002851D1212068701020A8700026AB
:10124000666403986062049961856663628D3949BA
:10125000FF2A03D9FF222285CB0206E0628D228578
:1012600001235B061204120C0FD0226800789062F2
:10127000606A401C6062608D401E6085208D401E4B
:101280002085401CC2B2009101E00022009120465E
:10129000029900F0EBFE16E000F0B1FF00281CD12F
:1012A000606A216800788862606A401C6062608DB4
:1012B000401E6085208D401E80B22085618D0029F2
:1012C00001D000280CD0608D0A9900283A462046AB
:1012D000E2D100F069FF00281DD0012005B0F0BD6B
:1012E00000970022802120460A9B00F0D5FE0028AE
:1012F000F3D1608DFF2806D9FF22228501231B062A
:101300000096C4E714E0608D20850096208D0123AF
:10131000C2B25B06BBE721682020C86121684A6829
:10132000054B1A404A606870AE702E700020D5E7F9
:101330000220D3E70020008000E800FE30B58DB029
:10134000044614216846FEF74BFF182105A8FEF756
:1013500047FF17492068884227D1202000250590A3
:10136000079505A800F000F9002801D0FFF7DBF988
:10137000104C616B022001436163616B0295014077
:10138000032000020B91009012200190062004908F
:10139000039569460848FFF745FDE16B01204005CC
:1013A0000143E163E16B01400B910DB030BD0000E2
:1013B00000540040001002400004005002488168C0
:1013C00002788918816070470C00002010B5084829
:1013D00000240168821511430160032000F00AF81F
:1013E000002801D0012401E000F028F8204610BDBB
:1013F0000020024070B50F4E0024317805460029C8
:1014000015D07D20C000FEF7EDFE01460A480068B9
:10141000FEF7E8FE00F034FC002808D1042D06D2C7
:1014200000222946401E00F02BF8756000E00124E0
:10143000204670BD0C0000201800002008B50948A7
:1014400001680122114301600068104000900548C6
:101450004038C26B01040A43C263C06B084000906D
:1014600008BD000040100240002805DBC106C90E7F
:1014700001208840014908607047000000E100E059
:1014800010B501F009FA10BD10B50F4C2168032208
:101490005202914301432160C11FFF39FA390ED135
:1014A0000A480621006848430949FEF79BFE401C94
:1014B00002E0002805D0401E61694905F9D40020EA
:1014C00010BD032010BD0000007000401800002077
:1014D00040420F0010B50C480621006848430B49F4
:1014E000FEF780FE0A490A680B149A430A60401C02
:1014F00002E0002805D0401E4A699205F9D4002078
:1015000010BD032010BD00001800002040420F0055
:1015100000700040024801680214114301607047E6
:101520000070004010B50C460D490028486904D0F1
:10153000800508D4FFF7EEFF05E0800503D5FFF72F
:10154000C9FF002809D107480169042291430161BC
:10155000012C03D040BF20BF20BF10BD30BF10BD45
:101560000070004000ED00E0F8B504460068002679
:101570004D4D800358D54C4800274038C06BC00003
:1015800009D449484038C26B01040A43C263C06BA6
:101590000840012700904548016882151143016009
:1015A000FFF7FAFC009005E0FFF7F6FC0099401AFF
:1015B000022825D83D480068C005F5D5E869032113
:1015C000090208400FD0616981420CD0E86903210B
:1015D0000902EA698843012109040A43EA61EA69C8
:1015E0008A43EA61E861C0070FD0FFF7D5FC00909D
:1015F00008E0FFF7D1FC0099411A2D48814201D93A
:10160000032609E0E8698007F3D5E86903210902A8
:10161000884361690843E861002F05D022484038BB
:10162000C26B01048A43C2632078C00705D0686991
:10163000616880088000084368612078800606D5CC
:101640006869032109038843A16808436861208809
:10165000400411D5686921698000800808436861E9
:10166000012120698907884206D10F484038C168A6
:10167000012212041143C1602088000512D5686957
:10168000032189038843E168084368610121E06818
:101690008903884206D104484038C16801221204F7
:1016A0001143C1603046F8BD401002400070004058
:1016B00088130000F8B50F46060043D04D4D28684A
:1016C0004007400FB84213D22868C008C000384312
:1016D0002860FFF761FC044605E0FFF75DFC011B95
:1016E0004548814261D828684007400FB842F4D18C
:1016F0003068424C81070DD5400704D5A06807210A
:1017000009030843A060A0680F2109028843B1685B
:101710000843A0603078C00732D0706801280AD032
:1017200002280BD000280FD03449403103280ED0B6
:10173000C969890704E02168890301E021688901FA
:10174000002906DB0120F8BD21684905F8E7096A90
:10175000EFE7A168C908C9000143A160FFF71CFCBD
:10176000009006E0FFF718FC0099411A22488142D8
:101770001BD8A068382108407168C9008842F1D19F
:1017800028684007400FB84217D91A480168C908AD
:10179000C90039430160FFF7FFFB054607E0FFF78B
:1017A000FBFB411B1448814201D90320F8BD1148BD
:1017B00000684007400FB842F1D13078400706D5A5
:1017C000A068072109038843F1680843A06000F07E
:1017D0001DF8A1683C2289091140094A515CC906DB
:1017E000C90EC8400749086007480068FFF702FEB5
:1017F000F8BD0000002002408813000000100240E5
:10180000102B0008180000201000002010B5204CFC
:10181000A068204A8006400F16D0A0688006410FBD
:10182000501001290FD0A1688906490F022912D052
:10183000A0688006400F042823D0A0688006400FCF
:10184000032821D0002010BD206801218004400F12
:101850008140104612E0E1688B07E1689B0F490662
:10186000490F491C032B00D01046FEF7BBFCE16872
:101870004904490E4843E168490F491CFEF7B2FC90
:1018800010BD0120C00310BD7D20000210BD00006E
:10189000001002400024F400F8B504007ED0207847
:1018A0003827C007E94D002846D0A868E9683840C5
:1018B0008907890F102802D008280BD001E00329DE
:1018C00008D001206268000482420AD129680143DD
:1018D000296015E0286880032ED560680028DDD0D7
:1018E0002AE0052301211B0489049A422A6802D1B7
:1018F0000A432A60EAE782432A602868884328600E
:10190000606800280CD0FFF747FB064604E0FFF7AD
:1019100043FB801B642873D828688003F7D50BE04D
:10192000FFF73AFB064604E0FFF736FB801B64280E
:10193000F1D828688003F7D42078800769D5A86893
:10194000E96838408A070721920FC902102802D09F
:10195000002813D001E0022A10D0E068002846D009
:10196000286888432169084328602868FF210131DD
:1019700008432860FFF710FB06462CE02A68520552
:1019800002D5E268002A89D06A687F231B029A4345
:1019900063691B021A436A60002800E08DE00ED1E3
:1019A0002868884321690843286028680121800449
:1019B000400F8140A648FEF715FCA6490860A648DE
:1019C0000068FFF717FD002877D122E0FFF7E4FA5F
:1019D000801B02289FD828684005F7D568687F21BA
:1019E00009028843616909020843686011E02968B7
:1019F000FF20013081432960FFF7CEFA064605E05B
:101A000098E0FFF7C9FA801B022884D828684005AF
:101A1000F7D42078914E00072ED5A8688006400F95
:101A200003280AD0A0690028306A16D00121084393
:101A30003062FFF7B1FA07460BE0306A80071BD52A
:101A4000A06900289FD017E0FFF7A6FAC01B022864
:101A500070D8306A8007F7D50EE040084000306249
:101A6000FFF79AFA074604E0FFF796FAC01B022830
:101A700060D8306A8007F7D4207840076CD5A86812
:101A800000278006400F042818D0E86BC00008D457
:101A9000E96B012000070143E963E96B014001277D
:101AA00000916F480168C90519D401688215114376
:101AB0000160FFF771FA00900DE083E0F0698007A4
:101AC0004AD5A06800287DD046E0FFF765FA009966
:101AD000401A02282ED862480068C005F5D5A168D2
:101AE000012910D004200529F16911D049084900C5
:101AF000F161F1698143F161A068002816D0FFF718
:101B00004BFA00900EE0F06901210843F061F3E721
:101B10000143F161F7E7FFF73FFA0099411A514895
:101B2000814265D8F0698007F5D50EE0FFF734FAF9
:101B3000009007E05CE0FFF72FFA0099411A49484E
:101B4000814255D8F0698007F5D4002F04D0E96BA5
:101B5000012000078143E963E069002873D0A96888
:101B60008906490F02294DD0012636060228286829
:101B700005D0B0432860FFF70FFA04463AE0B043BF
:101B80002860FFF709FA074604E0FFF705FAC01BD3
:101B900002282DD828688001F7D4616A206AA26AD9
:101BA0000843E16A120211430843216B0843E968C4
:101BB0002D4A11400843E860286830432860E868EF
:101BC000012100E03DE009070843E860FFF7E4F980
:101BD000044604E0FFF7E0F9001B022808D8286853
:101BE0008001F7D52FE0FFF7D7F9001B022801D9B4
:101BF0000320F8BD28688001F5D4E8681B49084037
:101C0000E86020E00128F4D0E868226A8107890FA3
:101C1000914216D17021626A0140914211D17F2117
:101C2000A26A09020140120291420AD11F2149040D
:101C3000E26A0140914204D1400F216B4007884283
:101C400001D00120F8BD0020F8BD000000100240C6
:101C50000024F40018000020100000204010024072
:101C600000700040881300008C80C11FFCFFFEEF55
:101C700002480169022211430161704700E000E05F
:101C8000094910B5401E884201D9012010BD074CFA
:101C900060610321081F00F0FFFD0020A061072004
:101CA0002061002010BD0000FFFFFF0000E000E009
:101CB00002480169022291430161704700E000E09F
:101CC00070477047704770B5040005D02546203531
:101CD000687F002802D006E0012070BD0020287730
:101CE000204600F017F802206877211D206800F0D8
:101CF000CBFC012240342272AA77EA77227062700C
:101D0000A270E27022716271A271E2716A770020A2
:101D100070BD000008B50068094988420FD1094824
:101D20000268C9130A43026000680022084000905C
:101D300011461320FFF7A4FB1320FFF795FB08BD06
:101D40000020004040100240014620314A7F012A15
:101D500001D00120704702224A770168CB68012236
:101D60001343CB6000680949884202D00849884281
:101D700007D18168074B1940062905D0DB1F99421E
:101D800002D001681143016000207047002C01401F
:101D900000040040070001000168CA6852085200B0
:101DA000CA6001680A6A084B1A4207D10A6A9B1086
:101DB0001A4203D10A68520852000A6001212030F9
:101DC00041770020704700001111000070470000AB
:101DD000F8B504460068C66805690027A907002908
:101DE00013DAB10711D5F91E0161012020772068AF
:101DF00080698007204602D0FFF7E8FF04E000F08A
:101E00008BF8204600F089F82777680716D5700709
:101E100014D504202168C04308610220207720687F
:101E200080698005800F204602D0FFF7CFFF04E0D5
:101E300000F072F8204600F070F82777280715D5D3
:101E4000300713D508202168C0430861042020779B
:101E50002068C0698007204602D0FFF7B7FF04E082
:101E600000F05AF8204600F058F82777E80616D513
:101E7000F00614D510202168C0430861082020779F
:101E80002068C0698005800F204602D0FFF79EFFC2
:101E900004E000F041F8204600F03FF82777E8071B
:101EA00008D0F00706D001202168C0430861204611
:101EB00000F034F8280601D4A80407D5300605D56B
:101EC0002168134808612046FFF7FBFEE80507D5A7
:101ED000300605D521680F4808612046FFF7F0FE5F
:101EE000680608D5700606D540202168C043086101
:101EF000204600F023F8A80608D5B00606D5202015
:101F00002168C04308612046FFF7DCFEF8BD0000F1
:101F10007FDFFFFFFFFEFFFF704770470068054946
:101F2000884205D10448012141704188491C418003
:101F30007047000000200040200100207047FEE7AD
:101F400001688A69D243920701D400228A6200683C
:101F50008169C943C90703D08169012211438161A5
:101F600070470000F7B50446006882B0816900261A
:101F70002746C906403735460092002942DA10212B
:101F8000C16131E00398401C2ED0FFF705F800999D
:101F9000411A0398814201D8002825D12068416860
:101FA000012292031140BA788369DB431B0416D4E3
:101FB00001239B03994212D0202A10D04168194373
:101FC0004160FEF7E9FF009009E0FEF7E5FF0099A8
:101FD000401A192803D920200543012604E020686F
:101FE0008069C0438006F0D4206880698006C00FF5
:101FF0003043C7D0002E02D121682020C8610420C0
:102000000543012621688869C20504D501221543CC
:102010001202CA610126410508D508210D43226834
:10202000C901D1610126800502D40AE0800506D5E8
:102030000220054321680002C861012601E0002E4C
:102040000FD02046FFF77CFF20684168064A114008
:102050004160606C28436064202078700020B87074
:102060003870304605B0F0BD00E800FE890510B5B7
:10207000890D12041143029C19430268214349004F
:1020800050684908630D034C23439843084350604C
:1020900010BD0000FF63FF03F8B51D4617460E464E
:1020A000044626E029462046069AFFF75BFF0028F3
:1020B00001D00120F8BD681C1BD0FEF76DFF06990A
:1020C000401AA84201D8002D13D1206881693046FA
:1020D00088430CD00020B8420BD1616C2020014312
:1020E0006164403460700020A0702070E1E701203E
:1020F000F1E7206881693046884304D00020B84267
:10210000D0D00020F8BD0120F9E70000F7B5002588
:10211000064604462F4640363CE02046029A019986
:10212000FFF720FF002800D0012520688169C943FE
:10213000890618D4002D16D181698169C943C90661
:1021400010D41021C1610420606420682022C26183
:1021500020684168134B194041607270B770377046
:10216000012500E06764FEF717FF0299411A019804
:10217000814201D800280DD1002D0BD12068806943
:10218000C043400706D5616C202001436164707034
:1021900037700125206880694007C00F2843BCD0F4
:1021A0002846FEBD00E800FE70B516460D46044602
:1021B0001EE0324629462046FFF7D4FE002801D013
:1021C000012070BDFEF7E8FE801BA84201D8002D5B
:1021D0000ED120688069C043800609D5616C20203B
:1021E00001436164403460700020A0702070E7E714
:1021F00020688069C0438006DBD4002070BD70B5C4
:1022000016460D46044620E0324629462046FFF792
:10221000A9FE002801D0012070BD681C15D0FEF772
:10222000BBFE801BA84201D8002D0ED1206880691A
:10223000C043800709D5616C2020014361644034AC
:1022400060700020A0702070E5E720688069C043BE
:102250008007D9D4002070BD8068C007C00F7047C8
:1022600080684007C00F7047C0680005800F01D02C
:102270000020704701207047026807239B059A439E
:102280000A430260704710B54369042421400724C3
:102290008C40A3438A401343436110BD3EB50024E4
:1022A0001948009401941749029401608460C46045
:1022B0000905046141600421416104764476847615
:1022C0000121C161014620310C70446284620C73AB
:1022D00007224263046382630C77C464FEF75CFBED
:1022E000002801D0FEF71FFA0848009001946946C3
:1022F00002940548FEF73AFA002801D0FEF713FAD7
:102300003EBD0000002401401C000020000200240B
:10231000F0B587B014216846FDF762FF2148426B93
:1023200002210A434263426B0A400592416B012439
:1023300021434163406B1C4D204005263607059024
:10234000002229463046FEF720FE184F0022842145
:102350003846FEF71AFE00950320002503900194ED
:10236000694602953046FEF75DFD8420694631C11D
:10237000694638460395FEF755FD20200090212040
:1023800000040190694602943846FEF74BFD002296
:1023900001210720FFF774F80720FFF765F807B061
:1023A000F0BD0000001002403F0300000004005098
:1023B00010B5134811490160124941600021816044
:1023C0000161416181610122C161C2600162FEF768
:1023D00033FE002801D0FEF7A6F900210848FEF7D9
:1023E000E1FD002801D0FEF79EF900210448FEF728
:1023F000FEFD002801D0FEF796F910BD0054004004
:1024000080000020BC7D701010B50A4808490160AA
:102410000949416000218160084A0161C26081610F
:10242000FFF751FC002801D0FEF77DF910BD000038
:1024300000200040D4000020FF1800000F270000FB
:10244000FEE770477FB50C460546FD2168460173DF
:102450000020461E01900290012303AA88210096C5
:102460001748FEF7CFFE0A20FEF788FC062301AAD4
:10247000892113480096FEF73DFE6846808840BAE1
:10248000FEF754F80F4900F083FA0F4E3146FDF77E
:1024900059FF0E4900F0D4FA28606846017AC279E3
:1024A0000802104340BAFEF741F8094900F070FAFB
:1024B0003146FDF747FF074900F0C2FA20607FBDB3
:1024C0008000002000002F4300FF7F4700003442BF
:1024D0000000FA420000C040FFB581B00C9D1E46CE
:1024E000174600242846A040000601D5012200E03E
:1024F000002202990198FEF748FD01223146384634
:10250000FEF743FD002231463846FEF73EFD641CCF
:10251000E4B2082CE6D301220B990A98FEF735FDA8
:1025200000220B990A98FEF730FD05B0F0BD704708
:10253000FEB5034601283DD802293BD8092A39D8DF
:102540002D4C0020A55C002904D0012904D00229CB
:1025500007D105E0FE2004E0FD2080210D4300E0CE
:10256000FB200524002610212407002B23D0012B5B
:1025700020D1C006000E0191029020232246009433
:1025800008212046FFF7A8FF022704232246012145
:102590002046019702950094FFF79EFF1748FDF72C
:1025A000E1FD042322460121204601970296009472
:1025B000FFF792FFFEBD0191029020232246009476
:1025C00008212046FFF788FFFF27013702957D008D
:1025D000019700942B46224604210948FFF77CFF0F
:1025E0000648FDF7BFFD2B4622460421044801970B
:1025F00002960094DCE7000000000020B80B000009
:102600000004005010B5FEF7D9FE10BD30B591B0F2
:1026100034216846FDF7E4FD002501200D950E9557
:102620000F9540021095FEF72FFF0224E001039062
:1026300000944020059008200A9080030B90079496
:10264000000304950C90099508946846FFF724F957
:10265000002801D072B6FEE707200DA931C1022182
:102660000DA81095FFF726F8002801D072B6FEE7F6
:1026700011B030BD7047000010B50248FFF7A8FB4D
:1026800010BD0000D400002070B502681B4B1C4E2A
:10269000984201D0B04203D17024A2434C68224337
:1026A000184C194D984208D0B04206D0174EB0428F
:1026B00003D0A04201D0A84204D103263602B2437F
:1026C000CE6832438026B2434E69324302608A6844
:1026D000C2620A688262984203D0A04201D0A84236
:1026E00001D109690163012141610169C90703D071
:1026F000016949084900016170BD0000002C0140DA
:102700000004004000440140004801400020004017
:1027100010B500F001F810BDF0B55B4C02266088E2
:10272000002585B005282ED905273F077F201021D9
:102730000191029020233A46009708213846FFF77E
:10274000CBFEF001430001903A4604210097029528
:102750004E48FFF7C1FE04233A4601213846009750
:1027600001960295FFF7B8FE4948FFF715FB658013
:10277000012280214548FEF708FCFFF799FA012164
:102780000020FEF7CFFE607800285DD065702078CD
:10279000404F002804D0012832D0022854D14BE009
:1027A00004A903A8FFF74EFE3946039800F0F0F89D
:1027B000FDF778FE86B23946049800F0E9F8FDF797
:1027C00071FE85B264213046FDF70CFD20710A21AF
:1027D0003046FDF707FD0E460A21FDF703FD617146
:1027E000A67164212846FDF7FDFCE0710A21284608
:1027F000FDF7F8FC0D460A21FDF7F4FC217219E003
:10280000FDF794FF394600F0C3F8FDF74BFE86B2A2
:1028100064213046FDF7E6FC20710A213046FDF7C1
:10282000E1FC0E460A21FDF7DDFC6171A671A0787E
:10283000E0712572657207E0032026716071042142
:10284000A171E57120726172002122790846FFF7BB
:102850006FFE627901210020FFF76AFEA279022152
:102860000020FFF765FEE27900210120FFF760FEFE
:102870000121227A0846FFF75BFE627A02210120DD
:10288000FFF756FE05B0F0BD200100200004005007
:10289000D4000020000020418307FF22DB0E9A4075
:1028A0008907090E9940002808DB830809489B0026
:1028B0001B18186890430843186070470007000F02
:1028C0000838830804489B001B18D86990430843C4
:1028D000D861704700E400E000ED00E0FEF776FD0F
:1028E000FFF794FEFFF714FDFFF762FDFFF7D6FC3C
:1028F000FFF78AFD0248FFF727FAFFF709FFFCE719
:10290000D400002070B501250400ED074C4020D410
:10291000441A01D2001B0919C60D4B00F2B2FF2A5E
:1029200029D01B0E2CD000020C02D31A2C43DC4001
:102930002843051910D2280A02D3401C6D0611D075
:10294000761EF6058019FF2A00DA70BDC00DC0059D
:1029500070BD694000F07AF801200543C541521C62
:10296000761CE8E764089C40C90161408900E7D112
:102970000124A043E4E71B0E440200D0034870BDCD
:10298000002AFCD1C00FC00770BD00BF0000C07F8F
:1029900070B5420064414B005C41120E39D01B0EF1
:1029A00038D0FF2A3CD0FF2B3AD040024902400ADF
:1029B000490A060045184E43000A090AD21848433E
:1029C000ED017F3A0104731A4019190C4318990F4D
:1029D00004D001215B0849075B1A521CD80904D3B3
:1029E000401CF50301D19D0607D0FF2A08D2D5056A
:1029F00006D0E4072043401970BD0125A843F4E741
:102A0000002A01DCE00770BD2402FF202043C0053E
:102A100070BD1B0EFF2A03D0FF2B01D0E00770BD55
:102A2000FF2645003606B54206D84D00B54203D80C
:102A3000D218FF2A00D0E7E7004870BD0000C07F31
:102A400070B501250400ED074C4022D4441A02D28F
:102A50006C40001B0919C60D4B00F2B2FF2A4BD087
:102A60001B0E50D000020C02D31A2C43DC40A843AA
:102A7000051B05D5AD0019D36D08761E521E37D043
:102A8000F605280A01D2801970BD70416D0603D089
:102A900070BD6940FFF73CFF9C400902614049005E
:102AA00001D0401E70BD0124A04370BD6D081DD033
:102AB00001202B0C01D12D0410302B0E01D12D0241
:102AC00008302B0F01D12D01001DAB0F01D1AD003E
:102AD000801CEB0F01D16D00401C6D00361A121ADC
:102AE000680AF5054019012A02DB70BD002070BD9F
:102AF000C036300AC00770BD1B0E440201D1FF2B47
:102B000000D1024870BD002AF0D070BD0000C07F27
:102B100000000000000000000000000000000000B5
:102B200000000000000000000000000000000000A5
:102B3000010000000200000003000000040000008B
:102B40000600000007000000080000000900000067
:102B50008182838485868788898B8C8D8E8F9192E4
:102B600093959697999A9C9D9FA0A2A3A5A7A8AA82
:102B7000ACAEB0B2B3B5B7B9BCBEC0C2C5C7C9CCA4
:102B8000CED1D4D7D9DCDFE2E6E9ECF0F3F7FAFEF8
:102B9000B02B0008000000201C0000000401000809
:102BA000CC2B00081C000020740700002001000846
:102BB0003F065B4F666D7D077F6F000001000000E0
:0C2BC00004000000000000000024F400ED
:04000005080000C12E
:00000001FF
