:020000040800F2
:10000000380700206D0100088D1A0008ED1800085F
:1000100000000000000000000000000000000000E0
:10002000000000000000000000000000E71A0008C7
:1000300000000000000000008F1A0008BD1B00082F
:100040007F010008000000007F0100087F01000818
:100050007F0100087F0100087F0100087F01000880
:10006000000000007F0100087F0100087F010008F8
:100070007F0100087F0100087F01000800000000E8
:100080007F01000800000000000000007F01000860
:10009000000000007F0100087F0100087F010008C8
:1000A0007F0100087F0100087F0100087F01000830
:1000B0007F010008000000000000000000000000B8
:1000C00000F002F800F03EF80CA030C80838241800
:1000D0002D18A246671EAB4654465D46AC4201D180
:1000E00000F030F87E460F3E0FCCB6460126334274
:1000F00000D0FB1AA246AB46334318471C1D000034
:100100003C1D0000103A02D378C878C1FAD85207D3
:1001100001D330C830C101D504680C6070470000BD
:100120000023002400250026103A01D378C1FBD813
:10013000520700D330C100D50B6070471FB51FBDFB
:1001400010B510BD00F0F5F91146FFF7F7FF01F00B
:10015000BDFD00F00DFA03B4FFF7F2FF03BC00F0A1
:1001600011FA00000138FDD17047000007488047B0
:1001700007480047FEE7FEE7FEE7FEE7FEE7FEE78B
:1001800004480549054A064B704700002D1C00082D
:10019000C100000838010020380700203803002083
:1001A0003803002001E004C0091F0429FBD28B079B
:1001B00001D50280801CC90700D002707047002959
:1001C0000BD0C30702D00270401C491E022904D381
:1001D000830702D50280801C891EE3E70022EEE738
:1001E0000022DFE7002203098B422CD3030A8B4253
:1001F00011D300239C464EE003460B433CD400221F
:1002000043088B4231D303098B421CD3030A8B4230
:1002100001D394463FE0C3098B4201D3CB01C01AFE
:10022000524183098B4201D38B01C01A52414309C9
:100230008B4201D34B01C01A524103098B4201D3B7
:100240000B01C01A5241C3088B4201D3CB00C01A24
:10025000524183088B4201D38B00C01A524143089C
:100260008B4201D34B00C01A5241411A00D20146C1
:100270005241104670475DE0CA0F00D0494203105A
:1002800000D34042534000229C4603098B422DD3A9
:10029000030A8B4212D3FC22890112BA030A8B4251
:1002A0000CD3890192118B4208D3890192118B42A0
:1002B00004D389013AD0921100E08909C3098B4225
:1002C00001D3CB01C01A524183098B4201D38B0168
:1002D000C01A524143098B4201D34B01C01A52410B
:1002E00003098B4201D30B01C01A5241C3088B4250
:1002F00001D3CB00C01A524183088B4201D38B003B
:10030000C01A5241D9D243088B4201D34B00C01AC4
:100310005241411A00D20146634652415B101046D9
:1003200001D34042002B00D54942704763465B1021
:1003300000D3404201B50020C046C04602BD704710
:1003400070477047F0B5FF252D04C609C209FF2785
:1003500004462E400137CB093E4348402A402B40FB
:100360000746002A6BD0002B69D0AA4267D0AB4267
:1003700065D0002800DA32460125ED0529432C43DB
:1003800009022002090AD21A4B0C7F24E31A434CBB
:10039000000A7C44E35C7D242404121914145B00DD
:1003A000A218884201D3521C00E0400049420C468A
:1003B0005C4324115C43DB016415E318040A5C43CD
:1003C000C502200D0C4644436419250A5D432303EE
:1003D000EC0C0D46654300030019EB184C42A34298
:1003E00001D35B18401CD4052018002B07D05B00FC
:1003F000C91804D3401C002901D1400840003F2106
:1004000089048A4209D3002A08DC1106090F04D0A6
:10041000032149074018C00FC007F0BD0122410069
:10042000120689187F2252069142F6D20521490709
:10043000C84201D59010F0BDFF20C005F0BD002FCF
:1004400000DA32461648AA4207D2AB4205D2190258
:10045000090E17D0F80FC007F0BDFF2563002D0669
:10046000AB42F9D84900A942F6D8AB4201D1A94222
:10047000F2D0A94201D1002101E061004908D00574
:100480000843F0BD1102090EFBD0FF200243D00546
:10049000F0BD0A460146104654E70000421A00002B
:1004A0000000C07F0102C21504D00123DB071943FD
:1004B000002A0ADB9E239A1A02D40846D0407047CD
:1004C000FF2241001206914201D900207047C01757
:1004D000C04370471F22030C02D10F2200041CD01E
:1004E000030E01D10002083A030F01D10001121FCF
:1004F000830F01D18000921E002801DB4000521EB4
:10050000D2055118021251181922904004D3491CE7
:10051000002801D14908490008467047C10FC907A2
:1005200000D04042012292071143D3E701218907FD
:10053000D0E7754600F022F8AE46050069465346FE
:10054000C008C000854618B020B5FFF719FE60BC92
:1005500000274908B6460026C0C5C0C5C0C5C0C5ED
:10056000C0C5C0C5C0C5C0C5403D49008D46704727
:100570000446C046C0462046FFF7EDFD00487047E0
:10058000D400002001491820ABBEFEE7260002007F
:100590007047000070B50446006801F0ACF900280F
:1005A00024D0206881688907C90F04D18168104A66
:1005B00011401031816000F08FFC054612E000F020
:1005C0008BFC401B02280DD920688068400709D5A4
:1005D000A06D10210843A065E06D01210843E0658E
:1005E000084670BD206880684007E8D4002070BDD0
:1005F000E8FFFF7FF8B50446006881688907CD0FE2
:1006000001F075F900282AD0002D28D120688168D2
:100610000522114010250126012914D18168114AB3
:100620001140891C816021680320086000F054FC9F
:10063000074610E000F050FCC01B02280BD92068D0
:100640008068C00707D0A06D2843A065E06D3043E7
:10065000E0650120F8BD20688068C007EAD100206D
:10066000F8BD0000E8FFFF7FF8B5044600200090C9
:10067000206801F03CF9002845D120688168234AB0
:1006800010261140002930D18168D5432940491CEA
:1006900081601F48006807218905084000020AD5CB
:1006A0001D481C490068FFF79DFD401C00E0401EEE
:1006B00000900028FBD1607E012824D000F00CFCC3
:1006C00007461BE001F013F9002804D12068816877
:1006D0002940491C816000F0FFFBC01B02280DD996
:1006E00020680068C043C00708D0A06D3043A065F3
:1006F000E06D01210843E0650846F8BD2068016807
:10070000C943C907DED10020F8BD000017000080F2
:1007100008270140400D03001800002072B6FEE7D4
:1007200010B50C4800F0D0FA0A4800F02BF9FFF79A
:10073000FDFE094901F0D8FA0849FFF703FE044617
:100740003221044800F05EFA024800F0F1FA204637
:1007500010BD00001C0000203333534000F07F45E3
:10076000F8B500270646044640360097307D0D4612
:1007700001280FD001203075206801F0BCF8002856
:100780000AD0A06D20210843A06501270020307504
:100790003846F8BD0220F8BD686802287ED00122E4
:1007A0002169D207914202D0121D914206D12068E0
:1007B0002968826A4903490B0A436EE0C206D20ED9
:1007C0000F20216E904081432868430302D0C30765
:1007D0004BD102E04000C00E48E0830701D5012064
:1007E00044E0430701D5022040E0030701D5032080
:1007F0003CE0C30601D5042038E0830601D505207E
:1008000034E0430601D5062030E0030601D5072079
:100810002CE0C30501D5082028E0830501D5092077
:1008200024E0430501D50A2020E0030501D50B2073
:100830001CE0C30401D50C2018E0830401D50D2071
:1008400014E0430401D50E2010E0030401D50F206D
:100850000CE0C30301D5102008E0830301D511206B
:1008600004E0400301D5122000E000209040014345
:1008700021666968E2698808401C904210D82068A7
:100880002B68826A9C46C906C90E0F238B409A4387
:1008900063469B001B0F8B401A4300E03BE08262E3
:1008A0002168AB6828684A69000282431840400109
:1008B000400902434A612868002800DB66E72B4AAA
:1008C000116807239B051940294B984214D10B024C
:1008D00012D4C0020143104601F019F826482549F8
:1008E0000068FFF77FFC0C21401C484300E0401EDD
:1008F00000900028FBD149E7204B984203D1CB015F
:1009000001D4800205E01E4B9842D7D14802D5D4CD
:100910005802014325E001212069C907884202D01D
:10092000091D884206D120682968826A4903490B5B
:100930008A43826228680028C0DA0C4A11680723BB
:100940009B0519400A4B984201D1C00208E00B4BAD
:10095000984201D1800203E0094B9842AED1400297
:100960008143104600F0D3FF10E700000827014044
:10097000001000B0400D030018000020004000B837
:10098000002000B40068006C70470000FEB500272E
:10099000044601973E4602970097002805D0254659
:1009A000A06D2035002802D007E00120FEBD2046C2
:1009B00000F0FAF8E6655420065520688168C90001
:1009C000C90F12D18168714A1140012212071143E7
:1009D000816070486E490068FFF704FC4000801C8D
:1009E00000E0401E00900028FBD120688168C9000B
:1009F000C90F08D1A16D10221143A165E16D01223B
:100A00001143E165174600F076FFA16D10221140F9
:100A10000143A06D03D010210843A065B2E0FF217F
:100A20000131884302210843A065206800F05FFF80
:100A300000286CD1217EA06889030843617ECA0327
:100A4000A17E4B031A431043226B002A01D00122DE
:100A500012031043E26810432269002A02DA5200AE
:100A6000520801E00122520510432A7B5200104334
:100A7000019A10432A78012A09D1002922D0A16DB8
:100A800020221143A165E16D01221143E165616AF4
:100A9000002906D0FF23C1331940A26A0143104642
:100AA00008432168CA683C4B1A400243CA60616827
:100AB000029A890F8907E06C0A4310432A7F012AB2
:100AC00004D00BE0012109040843E0E7636C226CC9
:100AD000491C1A43A36C0B431A4310432268116943
:100AE0002E4B194001431161032160688907884238
:100AF0000DD0590788420AD04900884207D0284AB9
:100B000091680F239B049943184001439160002191
:100B1000626B206800F002FF2249A26B206800F09F
:100B2000FDFE0F202169C04300291CD0012252057F
:100B300091420AD121688A6A227F9200121FD2064E
:100B4000D20E9040226E1043886220684069616B2B
:100B50004007400F88420BD1E665A06D80088000F9
:100B6000401CA0650FE021688A6A02438A62ECE7B4
:100B7000A06D0221884310210843A065E06D01218A
:100B80000843E06501273846FEBD0000E8FFFF7F0F
:100B9000400D0300180000200102DEFF02FCFF1FD1
:100BA0000027014004FFFF0710B586B0044614215A
:100BB0006846FFF715FB1049206888421AD10F4894
:100BC0000268012109050A43026000680840059097
:100BD0000A484038426B02210A434263406B00914D
:100BE00008400590032001900020029069460448C7
:100BF00000F0BEF806B010BD0024014040100240D5
:100C000000040050F8B5044640690D46082809D094
:100C10002068C068C00707D0A06D20210843A065E8
:100C20000120F8BD082600E0042600F055F907462B
:100C300015E0681C13D000F04FF9C01BA84201D882
:100C4000002D0CD120680068304208D1A06D04212D
:100C50000843A0650020403420750320F8BD2068BB
:100C600000683042E5D0A06D012149020843A0652B
:100C7000206800F044FE0C25002812D0A07E002839
:100C80000FD12068016809070BD500F034FE01215F
:100C900000280AD0A06D20221043A065E06D084313
:100CA000E065207E00280BD00CE020684268AA4353
:100CB0004260A06DFF22013290430843A065F0E737
:100CC000206805600020F8BD70B50446006800F09B
:100CD00012FE002802D00221084670BD254640358C
:100CE000287D01280AD0012028752046FFF7BCFC8A
:100CF00001460020002903D02875EDE7022070BDD1
:100D0000A26D094B1A40FF2301331A43A265E06527
:100D100023681C221A60287520688268034B1A40D9
:100D2000121D8260D8E70000FEF1FFFFE8FFFF7FA1
:100D300070B5054604464035287D012807D00126B8
:100D40002E752046FFF726FC002802D00CE002207A
:100D500070BD2046FFF74EFC002805D1A16DFF2293
:100D6000013291433143A1650021297570BD000016
:100D7000F0B5002303249AE02A4601259D402A402D
:100D80007ED00E79B607B60F012E01D0022E16D1F5
:100D900086682746B4465E00B646B7406646BE4300
:100DA000B446CF687646B7406646374387604668A4
:100DB000AE430D79ED06ED0F9D40354345600D794D
:100DC000ED43AD0708D0C5685F002646BE40B54379
:100DD0008E68BE402E43C6600D79AD07AD0F022D63
:100DE0000ED1DD08AD002D18AC462D6A5E07F60E5B
:100DF0000F27B740BD430F69B7402F4365462F62A9
:100E000005685F002646BE40B5430E79B607B60FAB
:100E1000BE402E4306604D68AD03AD0F46D09E0820
:100E2000264DB6007519AC462D6E9E07F60E0F279F
:100E3000B740BD4305273F07B84201D100270FE067
:100E40001F4FB84201D101270AE01E4FB84201D11D
:100E5000022705E01C4FB84201D1032700E0052717
:100E6000B7402F43154D664637662D684E6895434B
:100E7000F60200D51543114F3D607D68954300E0B3
:100E800014E04E68B60200D515437D600B4D8035E9
:100E90006E684F689643BF0300D516436E602E6898
:100EA0004F689643FF0300D516432E605B1C0A680B
:100EB0001546DA4000D05FE7F0BD000000180240A0
:100EC0000004005000080050000C0050002A01D01F
:100ED00081617047816270470148806870470000F7
:100EE0000C00002070B5024640325378202B1CD1F4
:100EF0001378012B19D00123137024245470046833
:100F000025689D432560046825681E03B543256058
:100F1000046825680D432560006801681943016075
:100F2000202050700020107070BD022070BD70B580
:100F3000024640325378202B1BD11378012B18D056
:100F4000012414702423537003681D68A5431D6099
:100F500005682B680F263602B3430902194329603E
:100F6000006801682143016020205070002010704B
:100F700070BD022070BD000070B5040006D025468B
:100F8000403568780026002802D005E0012070BDB9
:100F90002E70204600F04EF824206870206801680A
:100FA0004908490001600F216068090688432168EB
:100FB000086121688A680120C00382438A60E16871
:100FC0000129A1682FD02122920211432268916049
:100FD0000121E268C902022A2268536825D08B43A6
:100FE000536021684A68124B1A434A602168CA68F4
:100FF0008243CA60616920690843A1690902084304
:101000002168C860216AE069084321680860206897
:101010000168012211430160666420206870266324
:10102000AE70002070BD0143D0E70B43D8E700004D
:101030000080000230B58DB0044614216846FFF7E9
:10104000CFF8182105A8FFF7CBF817492068884288
:1010500027D1202000250590079505A800F0AAF8C3
:10106000002801D0FFF75AFB104C616B02200143AE
:101070006163616B02950140032000020B910090B7
:101080001220019006200490039569460848FFF756
:101090006FFEE16B012040050143E163E16B01401C
:1010A0000B910DB030BD0000005400400010024014
:1010B00000040050024881680278891881607047F6
:1010C0000C00002010B50848002401688215114367
:1010D0000160032000F00AF8002801D0012401E09B
:1010E00000F028F8204610BD0020024070B50F4ED9
:1010F000002431780546002915D07D20C000FFF777
:1011000071F801460A480068FFF76CF800F0D6FB5A
:10111000002808D1042D06D200222946401E00F0E6
:101120001FF8756000E00124204670BD0C0000200F
:101130001800002008B50948016801221143016028
:1011400000681040009005484038C26B01040A4313
:10115000C263C06B0840009008BD00004010024010
:1011600010B500F091FD10BD10B50F4C21680322A1
:101170005202914301432160C11FFF39FA390ED158
:101180000A480621006848430949FFF72BF8401C2C
:1011900002E0002805D0401E61694905F9D400200D
:1011A00010BD032010BD000000700040180000209A
:1011B00040420F00F8B50446006800264D4D8003FC
:1011C00058D54C4800274038C06BC00009D4494866
:1011D0004038C26B01040A43C263C06B0840012758
:1011E000009045480168821511430160FFF774FEC5
:1011F000009005E0FFF770FE0099401A022825D8FC
:101200003D480068C005F5D5E8690321090208409A
:101210000FD0616981420CD0E86903210902EA69B3
:101220008843012109040A43EA61EA698A43EA61C1
:10123000E861C0070FD0FFF74FFE009008E0FFF70E
:101240004BFE0099411A2D48814201D9032609E03D
:10125000E8698007F3D5E8690321090288436169D9
:101260000843E861002F05D022484038C26B0104D2
:101270008A43C2632078C00705D068696168800826
:101280008000084368612078800606D568690321DC
:1012900009038843A168084368612088400411D588
:1012A000686921698000800808436861012120691C
:1012B0008907884206D10F484038C16801221204CC
:1012C0001143C1602088000512D568690321890394
:1012D0008843E168084368610121E0688903884226
:1012E00006D104484038C168012212041143C1608C
:1012F0003046F8BD401002400070004088130000E6
:10130000F8B50F46060043D04D4D28684007400F02
:10131000B84213D22868C008C00038432860FFF7DD
:10132000DBFD044605E0FFF7D7FD011B4548814280
:1013300061D828684007400FB842F4D13068424C69
:1013400081070DD5400704D5A0680721090308438C
:10135000A060A0680F2109028843B1680843A0601B
:101360003078C00732D0706801280AD002280BD02C
:1013700000280FD03449403103280ED0C9698907AD
:1013800004E02168890301E021688901002906DB66
:101390000120F8BD21684905F8E7096AEFE7A1686F
:1013A000C908C9000143A160FFF796FD009006E05F
:1013B000FFF792FD0099411A224881421BD8A0688C
:1013C000382108407168C9008842F1D12868400777
:1013D000400FB84217D91A480168C908C9003943F3
:1013E0000160FFF779FD054607E0FFF775FD411B3A
:1013F0001448814201D90320F8BD11480068400714
:10140000400FB842F1D13078400706D5A0680721D7
:1014100009038843F1680843A06000F01DF8A16843
:101420003C2289091140094A515CC906C90EC840CD
:101430000749086007480068FFF758FEF8BD00003C
:10144000002002408813000000100240981D000890
:10145000180000201000002010B5204CA068204A81
:101460008006400F16D0A0688006410F5010012959
:101470000FD0A1688906490F022912D0A068800602
:10148000400F042823D0A0688006400F032821D0F5
:10149000002010BD206801218004400F81401046CB
:1014A00012E0E1688B07E1689B0F4906490F491C70
:1014B000032B00D01046FEF795FEE1684904490E63
:1014C0004843E168490F491CFEF78CFE10BD01201E
:1014D000C00310BD7D20000210BD000000100240BE
:1014E0000024F400F8B504007ED020783827C00727
:1014F000E94D002846D0A868E96838408907890F77
:10150000102802D008280BD001E0032908D00120C0
:101510006268000482420AD129680143296015E00B
:10152000286880032ED560680028DDD02AE00523D6
:1015300001211B0489049A422A6802D10A432A60C5
:10154000EAE782432A6028688843286060680028A8
:101550000CD0FFF7C1FC064604E0FFF7BDFC801B82
:10156000642873D828688003F7D50BE0FFF7B4FC34
:10157000064604E0FFF7B0FC801B6428F1D8286819
:101580008003F7D42078800769D5A868E9683840D7
:101590008A070721920FC902102802D0002813D011
:1015A00001E0022A10D0E068002846D0286888436D
:1015B0002169084328602868FF2101310843286019
:1015C000FFF78AFC06462CE02A68520502D5E2683D
:1015D000002A89D06A687F231B029A4363691B0231
:1015E0001A436A60002800E08DE00ED12868884325
:1015F000216908432860286801218004400F814048
:10160000A648FEF7EFFDA6490860A6480068FFF768
:101610006DFD002877D122E0FFF75EFC801B0228D9
:101620009FD828684005F7D568687F21090288435C
:10163000616909020843686011E02968FF200130F0
:1016400081432960FFF748FC064605E098E0FFF774
:1016500043FC801B022884D828684005F7D42078F2
:10166000914E00072ED5A8688006400F03280AD0A7
:10167000A0690028306A16D0012108433062FFF7C4
:101680002BFC07460BE0306A80071BD5A0690028B9
:101690009FD017E0FFF720FCC01B022870D8306AEB
:1016A0008007F7D50EE0400840003062FFF714FCD9
:1016B000074604E0FFF710FCC01B022860D8306A20
:1016C0008007F7D4207840076CD5A86800278006EB
:1016D000400F042818D0E86BC00008D4E96B012043
:1016E00000070143E963E96B0140012700916F485E
:1016F0000168C90519D40168821511430160FFF71B
:10170000EBFB00900DE083E0F06980074AD5A0680C
:1017100000287DD046E0FFF7DFFB0099401A022841
:101720002ED862480068C005F5D5A168012910D0FF
:1017300004200529F16911D049084900F161F169D6
:101740008143F161A068002816D0FFF7C5FB009027
:101750000EE0F06901210843F061F3E70143F16114
:10176000F7E7FFF7B9FB0099411A5148814265D864
:10177000F0698007F5D50EE0FFF7AEFB009007E0BB
:101780005CE0FFF7A9FB0099411A4948814255D80E
:10179000F0698007F5D4002F04D0E96B0120000721
:1017A0008143E963E069002873D0A9688906490F7D
:1017B00002294DD0012636060228286805D0B043FC
:1017C0002860FFF789FB04463AE0B0432860FFF742
:1017D00083FB074604E0FFF77FFBC01B02282DD8E0
:1017E00028688001F7D4616A206AA26A0843E16A26
:1017F000120211430843216B0843E9682D4A114046
:101800000843E860286830432860E868012100E068
:101810003DE009070843E860FFF75EFB044604E08B
:10182000FFF75AFB001B022808D828688001F7D56B
:101830002FE0FFF751FB001B022801D90320F8BD60
:1018400028688001F5D4E8681B490840E86020E07A
:101850000128F4D0E868226A8107890F914216D1E5
:101860007021626A0140914211D17F21A26A09026E
:101870000140120291420AD11F214904E26A01404B
:10188000914204D1400F216B4007884201D00120D2
:10189000F8BD0020F8BD0000001002400024F40054
:1018A000180000201000002040100240007000408E
:1018B000881300008C80C11FFCFFFEEF094910B5A2
:1018C000401E884201D9012010BD074C60610321F0
:1018D000081F00F0D9F90020A06107202061002036
:1018E00010BD0000FFFFFF0000E000E0FEE78068A1
:1018F000C007C00F704780684007C00F7047C068BE
:101900000005800F01D00020704701207047026859
:1019100007239B059A430A430260704710B5436949
:101920000424214007248C40A3438A40134343618D
:1019300010BD00003EB500241948009401941749D9
:10194000029401608460C46009050461416004215F
:1019500041610476447684760121C16101462031DB
:101960000C70446284620C730722426304638263D6
:101970000C77C464FFF70AF8002801D0FEF7CEFE0A
:10198000084800900194694602940548FEF7E8FE75
:10199000002801D0FEF7C2FE3EBD00000024014039
:1019A0001C00002000020024F0B587B01421684616
:1019B000FEF716FC1C48426B02210A434263426B4D
:1019C0000A400592416B012421434163406B174D4E
:1019D0002040052636070590002229463046FFF7AD
:1019E00075FA134F002284213846FFF76FFA0095ED
:1019F0000320002503900194694602953046FFF7C5
:101A0000B7F98420694631C1694638460395FFF726
:101A1000AFF9202000906946019502943846FFF7FF
:101A2000A7F907B0F0BD0000001002403F0300001E
:101A30000004005010B5134811490160124941607B
:101A4000002181600161416181610122C161C26047
:101A50000162FFF791FA002801D0FEF75FFE002136
:101A60000848FFF73FFA002801D0FEF757FE002193
:101A70000448FFF75CFA002801D0FEF74FFE10BDC6
:101A80000054004080000020BC7D7010FEE77047CD
:101A9000FFB581B00C9D1E46174600242846A04085
:101AA000000601D5012200E0002202990198FFF70B
:101AB0000DFA012231463846FFF708FA0022314676
:101AC0003846FFF703FA641CE4B2082CE6D301227F
:101AD0000B990A98FFF7FAF900220B990A98FFF779
:101AE000F5F905B0F0BD7047FEB5034601283DD8B5
:101AF00002293BD8092A39D82D4C0020A55C0029A1
:101B000004D0012904D0022907D105E0FE2004E019
:101B1000FD2080210D4300E0FB200524002610213C
:101B20002407002B23D0012B20D1C006000E0191E9
:101B3000029020232246009408212046FFF7A8FFA8
:101B40000227042322460121204601970295009492
:101B5000FFF79EFF1748FEF705FB042322460121ED
:101B60002046019702960094FFF792FFFEBD019177
:101B7000029020232246009408212046FFF788FF88
:101B8000FF27013702957D00019700942B462246DE
:101B900004210948FFF77CFF0648FEF7E3FA2B46CD
:101BA000224604210448019702960094DCE70000D5
:101BB00000000020B80B00000004005010B5FFF733
:101BC00079FA10BD30B591B034216846FEF708FBB4
:101BD000002501200D950E950F9540021095FFF7F9
:101BE000C3FA0224E00103900094402005900820ED
:101BF0000A9080030B900794000304950C900995BC
:101C000008946846FFF76EFC002801D072B6FEE724
:101C100007200DA931C102210DA81095FFF770FB17
:101C2000002801D072B6FEE711B030BD704710B584
:101C300000F002F810BD000010B5FEF771FD11496B
:101C400000F052F8FEF72EFC84B264212046FEF725
:101C5000C9FAC2B200210120FFF746FF0A2120463F
:101C6000FEF7C0FA0C460A21FEF7BCFA0A4601212B
:101C70000846FFF739FF224602210120FFF734FF13
:101C800010BD0000000020418307FF22DB0E9A40B8
:101C90008907090E9940002808DB830809489B0042
:101CA0001B18186890430843186070470007000F1E
:101CB0000838830804489B001B18D86990430843E0
:101CC000D861704700E400E000ED00E0FFF7FAF9AA
:101CD000FFF778FFFFF768FEFFF7ACFEFFF72AFE7D
:101CE000FFF7A5FFFCE7000070B5420064414B0020
:101CF0005C41120E39D01B0E38D0FF2A3CD0FF2B8E
:101D00003AD040024902400A490A060045184E43AB
:101D1000000A090AD2184843ED017F3A0104731AF8
:101D20004019190C4318990F04D001215B08490789
:101D30005B1A521CD80904D3401CF50301D19D063F
:101D400007D0FF2A08D2D50506D0E4072043401962
:101D500070BD0125A843F4E7002A01DCE00770BD4F
:101D60002402FF202043C00570BD1B0EFF2A03D0B4
:101D7000FF2B01D0E00770BDFF2645003606B542B7
:101D800006D84D00B54203D8D218FF2A00D0E7E7A5
:101D9000004870BD0000C07F00000000000000008F
:101DA0000000000000000000000000000000000033
:101DB0000000000000000000010000000200000020
:101DC00003000000040000000600000007000000FF
:101DD00008000000090000008182838485868788CE
:101DE000898B8C8D8E8F919293959697999A9C9DC5
:101DF0009FA0A2A3A5A7A8AAACAEB0B2B3B5B7B92D
:101E0000BCBEC0C2C5C7C9CCCED1D4D7D9DCDFE2F5
:101E1000E6E9ECF0F3F7FAFE381E000800000020B7
:101E20001C00000004010008541E00081C000020D3
:101E30001C070000200100083F065B4F666D7D0710
:101E40007F6F00000100000004000000000000009F
:041E50000024F40076
:04000005080000C12E
:00000001FF
